{
  "contractName": "Properties",
  "abi": [
    {
      "constant": false,
      "inputs": [
        {
          "name": "inputValue",
          "type": "uint256"
        }
      ],
      "name": "setHeadSize",
      "outputs": [
        {
          "name": "",
          "type": "uint256"
        }
      ],
      "payable": false,
      "stateMutability": "nonpayable",
      "type": "function"
    },
    {
      "constant": true,
      "inputs": [],
      "name": "getHeadSize",
      "outputs": [
        {
          "name": "",
          "type": "uint256"
        }
      ],
      "payable": false,
      "stateMutability": "view",
      "type": "function"
    }
  ],
  "bytecode": "0x608060405234801561001057600080fd5b5060fc8061001f6000396000f3006080604052600436106049576000357c0100000000000000000000000000000000000000000000000000000000900463ffffffff16806326299a2314604e5780638103dc3214608c575b600080fd5b348015605957600080fd5b5060766004803603810190808035906020019092919050505060b4565b6040518082815260200191505060405180910390f35b348015609757600080fd5b50609e60c7565b6040518082815260200191505060405180910390f35b6000816000819055506000549050919050565b600080549050905600a165627a7a723058207b133353eebc77776368db95a0e46df12874f79bae2e75a215710b3a59d1aa7a0029",
  "source": "pragma solidity ^0.4.24;\n\ncontract Properties {\n  uint headSize;\n\n  function setHeadSize(uint inputValue) public returns (uint) {\n    headSize = inputValue;\n    return headSize;\n  }\n\n  function getHeadSize() public view returns (uint) {\n    return headSize;\n  }\n}\n",
  "sourcePath": "/Users/tyler/projects/tutorials/eth/creator/contracts/Properties.sol",
  "compiler": {
    "name": "solc",
    "version": "0.4.24+commit.e67f0147.Emscripten.clang"
  },
  "schemaVersion": "2.0.0",
  "updatedAt": "2018-10-09T03:32:08.700Z"
}